:1000000016C1000044C1000042C1000040C1000010
:100010003EC100003CC100003AC1000038C10000F0
:1000200036C1000034C1000032C1000030C1000000
:100030002EC100002CC100002AC1000028C1000010
:1000400026C100009DC4000022C1000020C10000A4
:100050001EC100001CC100001AC10000C0C3000086
:1000600016C1000014C1000012C1000010C1000040
:100070000EC100000CC100000AC1000008C1000050
:1000800052C4000004C1000002C1000000C1000011
:10009000FEC00000FCC00000FAC00000F8C0000074
:1000A000F6C00000F4C0000011C40000F0C0000061
:1000B000EEC00000ECC00000EAC00000DAC300009F
:1000C000E6C00000E4C00000E2C00000E0C00000A4
:1000D000DEC00000DCC00000DAC00000D8C00000B4
:1000E000D6C0000077017A0169016D017101B1018B
:1000F0007E01820188018C01900196019A019E0186
:10010000B101A401A801AC0105A84CCDB2D44EB9EF
:100110003836A9020C50B9918688083CA6AAAA2AAA
:10012000BE000000803F00002100240027002A00BC
:100130002D003000330001010000040107010A0115
:1001400000002200250028002B002E003100340082
:1001500002010000050108010B0105050505070561
:1001600008080808020202020A0A08080404040433
:10017000010101010101010103030303030303035F
:10018000040707070C0C0C0C0C0C0C0C02020202EE
:1001900006060606060606060B0B0B0B0B0B0B0BD7
:1001A0000102102020080810204010204080020189
:1001B000020108040201010204081020408080406E
:1001C000201008040201800402018040201008046D
:1001D000020108040201010204081020408001020B
:1001E00004081020408000000A0B02090C0D0E08C4
:1001F00007030401000000000000000000000000F0
:1002000000000000000000000000000000000000EE
:1002100000001211100000000000000000000000AB
:100220000000000000000000000000002C07112466
:100230001FBECFEFD1E2DEBFCDBF00E00CBF12E0AA
:10024000A0E0B2E0E4E6F4E100E00BBF02C00790FA
:100250000D92A030B107D9F722E0A0E0B2E001C0D2
:100260001D92A43CB207E1F711E0C7E1D1E000E044
:1002700006C021970109802FFE010E94280AC6317D
:10028000D10780E00807A9F7A8D30C94300AB8CEAC
:10029000362F90E0FC01EA51FE4F4491FC01E056FC
:1002A000FE4F2491FC01E65AFE4F9491992309F4E4
:1002B0006BC0442309F455C050E0FA013197E23194
:1002C000F10508F04EC08827EE58FF4F8F4F0C9471
:1002D000280A809180008F7707C0809180008F7DF1
:1002E00003C080918000877F809380003AC084B5EE
:1002F0008F7702C084B58F7D84BD33C08091B000FC
:100300008F7703C08091B0008F7D8093B00029C0AB
:10031000809190008F7707C0809190008F7D03C0FF
:1003200080919000877F809390001BC08091A000F7
:100330008F7707C08091A0008F7D03C08091A000BF
:10034000877F8093A0000DC0809120018F7707C028
:10035000809120018F7D03C080912001877F809351
:100360002001E92FF0E0EE0FFF1FE05CFE4FA591AA
:10037000B4918FB7F894EC91311103C020952E23DE
:1003800001C02E2B2C938FBF08953FB7F894809116
:100390009A0290919B02A0919C02B0919D0226B579
:1003A000A89B05C02F3F19F00196A11DB11D3FBFAD
:1003B000BA2FA92F982F8827820F911DA11DB11D3B
:1003C000BC01CD0142E0660F771F881F991F4A9537
:1003D000D1F70895CF92DF92EF92FF92CF93DF9300
:1003E000EC01603282E078070CF03BC077FD06C07C
:1003F000653B71052CF064EB70E002C060E070E0DA
:10040000898128E830E06901C81AD10887FDD394B2
:10041000CC0CDD1CCC0CDD1C0D2C000CEE08FF08F8
:100420008A8128E532E0281B310987FD3395220FA8
:10043000331F220F331FC901330FAA0BBB0B9C01C3
:10044000AD012C193D094E095F09DB014FD524EBA5
:1004500030E040E050E024D5C20ED31EE41EF51E6D
:10046000B6018881803380F5998148E850E0491BC6
:10047000510997FD5395440F551F440F551F64179D
:10048000750784F09A8128E532E0291B310997FD30
:100490003395220F331F220F331FAB012617370767
:1004A0000CF4A90142505109440F551F2FB7F8947D
:1004B00090E0FC01EE0FFF1F8E0F9F1FFC01EB5F12
:1004C000FD4F528341832FBFDF91CF91FF90EF907B
:1004D000DF90CF900895CF93DF93DC018C91803330
:1004E00008F06CC09B013327F901E056FE4F849160
:1004F000F901E65AFE4F2491222399F030E0220FB1
:10050000331FF901EA5DFE4FC591D491F901E05C1A
:10051000FE4F259134919FB7F894E881E82BE8834A
:100520009FBF8C91E82FF0E09F01220F331FE20F55
:10053000F31FEB5FFD4F6F739081907C692B60839D
:1005400011961C92119712961C9212976CE074D718
:100550009CE0899FB001112440E050E09A01260FF1
:10056000371FF901EE0FFF1F2E0F3F1FF901EB5F41
:10057000FD4F908196FD16C04F5F5F4F4C30510587
:1005800069F78130F9F41092800082E08093810055
:100590001092850010928400B19A80916F00826061
:1005A00080936F00EC91F0E0CF01880F991FE80F66
:1005B000F91FEB5FFD4F8081806480838C91DF9118
:1005C000CF910895823061F4109290008093910051
:1005D000109295001092940088BB80937100E2CF36
:1005E000833069F41092A00082E08093A100109201
:1005F000A5001092A40089BB80937200D3CF811113
:10060000D1CF1092200182E0809321011092250128
:10061000109224018ABB80937300C4CFFC01909197
:1006200004029033A0F481E0890F80930402908348
:10063000892F90E0FC01EE0FFF1F8E0F9F1FFC0122
:10064000EB5FFD4F88EB9BE09283818308958FEFF2
:1006500080830895CF92DF92EF92FF920F931F93C2
:10066000CF93DF936C018B017A01EC01C050DE4F18
:10067000888187FF04C0FB011182108224C08CE0B6
:100680008C9D90018D9D300D11248881A901480F0A
:10069000511D87FD5A958091040290E04817590733
:1006A00094F48881A901480F511D87FD5A95CA010C
:1006B000FA01EE0FFF1F8E0F9F1FFC01EB5FFD4F36
:1006C000808186FD19C088818F5F88838CE08C9D36
:1006D00090018D9D300D11248881A901480F511D75
:1006E00087FD5A958091040290E048175907B4F4A9
:1006F00088818C303CF112C08881280F311D87FD24
:100700003A95F901EE0FFF1F2E0F3F1FF901EB5F26
:10071000FD4F808160E08F73BBDDD5CFF801808114
:100720009181049680349C4918F480E49CE904C0CB
:10073000F801808191810496F701918380838FEF86
:10074000888344C0F801408151818881B901680FD4
:10075000711D87FD7A95CB01FB01EE0FFF1F8E0FF8
:100760009F1FFC01EB5FFD4F81819281840F951FDC
:10077000F701918380838881A901480F511D87FD6E
:100780005A95CA01FA01EE0FFF1F8E0F9F1FFC0141
:10079000EB5FFD4F808186FF19C08881280F311DD6
:1007A00087FD3A95F901EE0FFF1F2E0F3F1FF9014C
:1007B000EB5FFD4F808161E08F73DF91CF911F91DF
:1007C0000F91FF90EF90DF90CF9062CDDF91CF91AE
:1007D0001F910F91FF90EF90DF90CF9008951F929F
:1007E0000F920FB60F9211242F933F938F939F93E5
:1007F000AF93BF938091960290919702A091980237
:10080000B09199023091950223E0230F2D3720F407
:100810000196A11DB11D05C026E8230F0296A11D5A
:10082000B11D209395028093960290939702A09316
:100830009802B093990280919A0290919B02A091A4
:100840009C02B0919D020196A11DB11D80939A0258
:1008500090939B02A0939C02B0939D02BF91AF9195
:100860009F918F913F912F910F900FBE0F901F90EE
:1008700018951F920F920FB60F9211240BB60F927C
:100880002F933F934F935F936F937F938F939F9398
:10089000AF93BF93EF93FF9348E251E064E271E0BE
:1008A00080E090E0D7DEFF91EF91BF91AF919F91F3
:1008B0008F917F916F915F914F913F912F910F9009
:1008C0000BBE0F900FBE0F901F9018951F920F92A6
:1008D0000FB60F9211240BB60F922F933F934F93A5
:1008E0005F936F937F938F939F93AF93BF93EF9398
:1008F000FF9348EA50E064EA70E083E090E0AADE0B
:10090000FF91EF91BF91AF919F918F917F916F91E7
:100910005F914F913F912F910F900BBE0F900FBEA3
:100920000F901F9018951F920F920FB60F921124DF
:100930000BB60F922F933F934F935F936F937F93D9
:100940008F939F93AF93BF93EF93FF9348E950E04A
:1009500064E970E082E090E07DDEFF91EF91BF916D
:10096000AF919F918F917F916F915F914F913F9147
:100970002F910F900BBE0F900FBE0F901F901895E8
:100980001F920F920FB60F9211240BB60F922F9356
:100990003F934F935F936F937F938F939F93AF9307
:1009A000BF93EF93FF9348E850E064E870E081E084
:1009B00090E050DEFF91EF91BF91AF919F918F91A9
:1009C0007F916F915F914F913F912F910F900BBE4F
:1009D0000F900FBE0F901F901895789484B5826089
:1009E00084BD84B5816084BD85B5826085BD85B5D3
:1009F000816085BD80916E00816080936E00109251
:100A000081008091810082608093810080918100CB
:100A1000816080938100809180008160809380005C
:100A20008091B10084608093B1008091B0008160BA
:100A30008093B000809191008260809391008091BA
:100A400091008160809391008091900081608093FB
:100A500090008091A10082608093A1008091A1000C
:100A600081608093A1008091A00081608093A000AC
:100A70008091210182608093210180912101816018
:100A800080932101809120018160809320018091D9
:100A90007A00846080937A0080917A0082608093EB
:100AA0007A0080917A00816080937A0080917A0048
:100AB000806880937A001092C10062E070E08FEB52
:100AC00092E009DD63E070E08CEB92E004DD64E02D
:100AD00070E089EB92E0FFDC65E070E086EB92E08D
:100AE000FADC66E070E083EB92E0F5DC67E070E052
:100AF00080EB92E0F0DC68E070E08DEA92E0EBDC05
:100B000069E070E08AEA92E0E6DC6AE070E087EA99
:100B100092E0E1DC6BE070E084EA92E0DCDC6CE027
:100B200070E081EA92E0D7DC6DE070E08EE992E05F
:100B3000D2DC63E370E08FEB92E04CDC6FE370E0BB
:100B40008CEB92E047DC64E570E089EB92E042DCFC
:100B50006AE670E086EB92E03DDC6BE770E083EBE9
:100B600092E038DC62E870E080EB92E033DC6BE727
:100B700070E08DEA92E02EDC6AE670E08AEA92E0AC
:100B800029DC64E570E087EA92E024DC6FE370E042
:100B900084EA92E01FDC63E370E081EA92E01ADC11
:100BA00063E370E08EE992E015DC00E010E0109263
:100BB000C3021092C202C091C202D091C302C836D1
:100BC00081E0D8070CF041C1E0DB4B015C0183E020
:100BD000C82ED12CE12CF12CD8DBDC01CB018819FB
:100BE0009909AA09BB09883E9340A105B10558F0AF
:100BF00021E0C21AD108E108F10888EE880E83E0EE
:100C0000981EA11CB11CC114D104E104F10421F708
:100C1000BE010D2E000C880B990BA2D220ED3FE0F7
:100C200049E450E462D320E030E044E353E4FDD1F2
:100C30006B017C0124EB38EC46E350E48FD1F2D118
:100C400020E030E040E252E450D320E030E044EBDA
:100C500052E484D152D28FEB92E0BCDB2AE23AE339
:100C600042E150E4C701B60179D1DCD120E030E0A7
:100C700040E252E43AD320E030E044EB52E46ED15B
:100C80003CD28CEB92E0A6DB2FE337E54BED5FE344
:100C9000C701B60163D1C6D120E030E040E252E4A2
:100CA00024D320E030E044EB52E458D126D289EB43
:100CB00092E090DB2AE23AE342E95FE3C701B60142
:100CC0004DD1B0D120E030E040E252E40ED320E03C
:100CD00030E044EB52E442D110D286EB92E07ADB72
:100CE0002AE23AE342E15FE3C701B60137D19AD184
:100CF00020E030E040E252E4F8D220E030E044EB83
:100D000052E42CD1FAD183EB92E064DB20E030E0B6
:100D1000A901C701B60122D185D120E030E040E22F
:100D200052E4E3D220E030E044EB52E417D1E5D1C5
:100D300080EB92E04FDB2AE23AE342E15FE3C70156
:100D4000B6010BD16FD120E030E040E252E4CDD2C9
:100D500020E030E044EB52E401D1CFD18DEA92E0C3
:100D600039DB2AE23AE342E95FE3C701B601F5D095
:100D700059D120E030E040E252E4B7D220E030E048
:100D800044EB52E4EBD0B9D18AEA92E023DB2FE3C3
:100D900037E54BED5FE3C701B601DFD043D120E07B
:100DA00030E040E252E4A1D220E030E044EB52E4F3
:100DB000D5D0A3D187EA92E00DDB2AE23AE342E103
:100DC00050E4C701B601C9D02DD120E030E040E2A7
:100DD00052E48BD220E030E044EB52E4BFD08DD11E
:100DE00084EA92E0F7DA24EB38EC46E350E4C701FA
:100DF000B601B3D017D120E030E040E252E475D222
:100E000020E030E044EB52E4A9D077D181EA92E0CF
:100E1000E1DA2FE337E54BE550E4C701B6019DD099
:100E200001D120E030E040E252E45FD220E030E047
:100E300044EB52E493D061D18EE992E0CBDA219673
:100E4000D093C302C093C202B6CE0115110509F4B6
:100E5000AECE0E940000ABCE8FEB92E0DFDB8CEBDE
:100E600092E0DCDB89EB92E0D9DB86EB92E0D6DB2B
:100E700083EB92E0D3DB80EB92E0D0DB8DEA92E073
:100E8000CDDB8AEA92E0CADB87EA92E0C7DB84EA3C
:100E900092E0C4DB81EA92E0C1DB8EE992E0BECB56
:100EA000052E97FB16F400940FD057FD05D024D0E3
:100EB00007FC02D046F408C0509540953095219526
:100EC0003F4F4F4F5F4F0895909580957095619576
:100ED0007F4F8F4F9F4F089531D0A59F900DB49FA6
:100EE000900DA49F800D911D11240895B7FFF4CF9C
:100EF000F3DF821B930B0895A1E21A2EAA1BBB1BE2
:100F0000FD010DC0AA1FBB1FEE1FFF1FA217B307D5
:100F1000E407F50720F0A21BB30BE40BF50B661FEB
:100F2000771F881F991F1A9469F7609570958095AF
:100F300090959B01AC01BD01CF010895A29FB00126
:100F4000B39FC001A39F700D811D1124911DB29FFD
:100F5000700D811D1124911D08955058BB27AA279B
:100F60000ED078C141D130F046D120F031F49F3F0E
:100F700011F41EF436C10EF4E095E7FB2CC1E92F05
:100F80008BD180F3BA17620773078407950718F0AF
:100F900071F49EF5A3C10EF4E0950B2EBA2FA02D8F
:100FA0000B01B90190010C01CA01A0011124FF2716
:100FB000591B99F0593F50F4503E68F11A16F04011
:100FC000A22F232F342F4427585FF3CF4695379510
:100FD0002795A795F0405395C9F77EF41F16BA0BD5
:100FE000620B730B840BBAF09150A1F0FF0FBB1F83
:100FF000661F771F881FC2F70EC0BA0F621F731FCC
:10100000841F48F4879577956795B795F7959E3F28
:1010100008F0B3CF9395880F08F09927EE0F9795B6
:1010200087950895F0D0E39526C10CD013C1E3D085
:1010300040F0DAD030F021F45F3F19F0CCC051110C
:101040004EC1CFC029D198F39923C9F35523B1F3E9
:10105000951B550BBB27AA2762177307840738F027
:101060009F5F5F4F220F331F441FAA1FA9F333D086
:101070000E2E3AF0E0E830D091505040E695001C3A
:10108000CAF729D0FE2F27D0660F771F881FBB1FF6
:10109000261737074807AB07B0E809F0BB0B802DD0
:1010A000BF01FF2793585F4F2AF09E3F510568F01C
:1010B00092C015C15F3FECF3983EDCF386957795BF
:1010C0006795B795F7959F5FC9F7880F911D96951E
:1010D000879597F90895E1E0660F771F881FBB1F7A
:1010E000621773078407BA0720F0621B730B840B27
:1010F000BA0BEE1F88F7E095089504D06894B111FB
:10110000EEC00895D1D088F09F5790F0B92F99275D
:10111000B751A0F0D1F0660F771F881F991F1AF002
:10112000BA95C9F712C0B13081F0D8D0B1E00895B6
:10113000D5C0672F782F8827B85F39F0B93FCCF337
:10114000869577956795B395D9F73EF490958095F8
:10115000709561957F4F8F4F9F4F0895E89409C018
:1011600097FB3EF490958095709561957F4F8F4FDA
:101170009F4F9923A9F0F92F96E9BB279395F695F0
:10118000879577956795B795F111F8CFFAF4BB0F6E
:1011900011F460FF1BC06F5F7F4F8F4F9F4F16C0D2
:1011A000882311F096E911C0772321F09EE8872F5C
:1011B000762F05C0662371F096E8862F70E060E018
:1011C0002AF09A95660F771F881FDAF7880F969591
:1011D000879597F9089597F99F6780E870E060E038
:1011E00008959FEF80EC089500240A9416161706C0
:1011F00018060906089500240A9412161306140608
:1012000005060895EECF50D0E8F3E894E0E0BB2760
:101210009F57F0F02AED3FE049EC06C0EE0FBB0F00
:10122000661F771F881F28F0B23A6207730784078A
:1012300028F0B25A620B730B840BE3959A9572F700
:10124000803830F49A95BB0F661F771F881FD2F73E
:101250009048B0C0092E0394000C11F4882352F07A
:10126000BB0F40F4BF2B11F460FF04C06F5F7F4FD2
:101270008F4F9F4F0895EF93E0FF06C0A2EA2AED3B
:101280003FE049EC5FEB7BDEE5DF0F90039401FC70
:101290009058E8E0F1E09AC057FD9058440F551F70
:1012A00059F05F3F71F04795880F97FB991F61F0E8
:1012B0009F3F79F087950895121613061406551F5F
:1012C000F2CF4695F1DF08C0161617061806991FCB
:1012D000F1CF86957105610508940895E894BB27C0
:1012E00066277727CB0197F908950BD0B3CF7CDF22
:1012F00028F081DF18F0952309F06DCF72CF11240B
:10130000EECFCADFA0F3959FD1F3950F50E0551FA4
:10131000629FF001729FBB27F00DB11D639FAA274A
:10132000F00DB11DAA1F649F6627B00DA11D661F99
:10133000829F2227B00DA11D621F739FB00DA11DBA
:10134000621F839FA00D611D221F749F3327A00D74
:10135000611D231F849F600D211D822F762F6A2F10
:1013600011249F5750408AF0E1F088234AF0EE0F95
:10137000FF1FBB1F661F771F881F91505040A9F7A2
:101380009E3F510570F027CFAACF5F3FECF3983E08
:10139000DCF3869577956795B795F795E7959F5F09
:1013A000C1F7FE2B880F911D9695879597F90895A3
:1013B0009F3F31F0915020F4879577956795B795C9
:1013C000880F911D9695879597F908959F938F9310
:1013D0007F936F93FF93EF939B01AC0186DFEF91B7
:1013E000FF9105D02F913F914F915F917ECFDF9379
:1013F000CF931F930F93FF92EF92DF927B018C01AB
:10140000689405C0DA2EEF017CDFFE01E894A59117
:101410002591359145915591AEF3EF01B0DDFE0177
:101420009701A801DA9479F7DF90EF90FF900F9180
:101430001F91CF91DF910895991B79E004C0991F06
:10144000961708F0961B881F7A95C9F7809508951E
:10145000EE0FFF1F881F8BBF0790F691E02D1994A8
:04146000F894FFCF2E
:00000001FF
