:1000000023C1000051C100004FC100004DC10000DC
:100010004BC1000049C1000047C1000045C10000BC
:1000200043C1000041C100003FC100003DC10000CC
:100030003BC1000039C1000037C1000035C10000DC
:1000400033C1000034C500002FC100002DC10000E5
:100050002BC1000029C1000027C100004DC30000D2
:1000600023C1000021C100001FC100001DC100000C
:100070001BC1000019C1000017C1000015C100001C
:10008000E9C4000011C100000FC100000DC1000053
:100090000BC1000009C1000007C1000005C100003C
:1000A00003C1000001C10000A8C40000FDC00000A1
:1000B000FBC00000F9C00000F7C0000071C40000E0
:1000C000F3C00000F1C00000EFC00000EDC0000070
:1000D000EBC00000E9C00000E7C00000E5C0000080
:1000E000E3C0000070017301620166016C01AA01A6
:1000F00077017B018101850189018F0193019701BE
:10010000AA019D01A101A50105A84CCDB2D44EB90B
:100110003836A9020C50B9918688083CA6AAAA2AAA
:10012000BE000000803F00002100240027002A00BC
:100130002D003000330001010000040107010A0115
:1001400000002200250028002B002E003100340082
:1001500002010000050108010B010000200023003E
:10016000260029002C002F003200000100000301AE
:10017000060109010505050507050808080802022A
:1001800002020A0A08080404040401010101010131
:1001900001010303030303030303040707070C0C14
:1001A0000C0C0C0C0C0C02020202060606060606DB
:1001B00006060B0B0B0B0B0B0B0B01021020200880
:1001C00008102040102040800201020108040201B2
:1001D0000102040810204080804020100804020121
:1001E000800402018040201008040201080402017A
:1001F0000102040810204080010204081020408001
:1002000000000A0B02090C0D0E0807030401000090
:1002100000000000000000000000000000000000DE
:10022000000000000000000000000000121110009B
:1002300000000000000000000000000000000000BE
:10024000000000000000AE1111241FBECFEFD1E26C
:10025000DEBFCDBF00E00CBF12E0A0E0B2E0E0E8FE
:10026000F9E200E00BBF02C007900D92A030B10789
:10027000D9F722E0A0E0B2E001C01D92AC3CB20789
:10028000E1F711E0C4E2D1E000E006C021970109E6
:10029000802FFE010E94B614C332D10780E0080708
:1002A000A9F732D40C94BE14ABCE90E0FC01319788
:1002B000E231F10508F04EC08827EE58FF4F8F4F0E
:1002C0000C94B614809180008F7703C080918000D9
:1002D0008F7D80938000089580918000877FF9CF83
:1002E00084B58F7702C084B58F7D84BD08958091D9
:1002F000B0008F7703C08091B0008F7D8093B000F5
:100300000895809190008F7707C0809190008F7D35
:1003100003C080919000877F809390000895809122
:10032000A0008F7707C08091A0008F7D03C08091CF
:10033000A000877F8093A0000895809120018F778F
:1003400007C0809120018F7D03C080912001877FAD
:100350008093200108953FB7F8948091C80290914E
:10036000C902A091CA02B091CB0226B5A89B05C0D4
:100370002F3F19F00196A11DB11D3FBFBA2FA92F24
:10038000982F8827820F911DA11DB11DBC01CD01A1
:1003900042E0660F771F881F991F4A95D1F708958D
:1003A000FC01909132029033A0F481E0890F809398
:1003B00032029083892F90E0FC01EE0FFF1F8E0F19
:1003C0009F1FFC01ED5CFD4F88EB9BE092838183D6
:1003D00008958FEF80830895CF93DF93282F30E027
:1003E000F901E050FE4F8491F901E654FE4FD4919B
:1003F000F901EC58FE4FC491CC2389F0811155DFEF
:10040000EC2FF0E0EE0FFF1FE65AFE4FA591B491DE
:10041000EC91ED2381E090E021F480E002C080E0E7
:1004200090E0DF91CF9108951F93CF93DF93282F12
:1004300030E0F901E050FE4F8491F901E654FE4F9F
:10044000D491F901EC58FE4FC491CC23C1F0162F82
:1004500081112BDFEC2FF0E0EE0FFF1FE05CFE4F71
:10046000A591B4918FB7F894111105C09C91ED2F0F
:10047000E095E92302C0EC91ED2BEC938FBFDF9167
:10048000CF911F910895CF92DF92EF92FF920F9339
:100490001F93CF93DF936C018B017A01EC01C25D56
:1004A000DD4F888187FF04C0FB011182108224C0C8
:1004B0008CE08C9D90018D9D300D11248881A901C7
:1004C000480F511D87FD5A958091320290E04817E0
:1004D000590794F48881A901480F511D87FD5A9549
:1004E000CA01FA01EE0FFF1F8E0F9F1FFC01ED5C8A
:1004F000FD4F808186FD19C088818F5F88838CE0E5
:100500008C9D90018D9D300D11248881A901480F8B
:10051000511D87FD5A958091320290E04817590786
:10052000B4F488818C303CF112C08881280F311DD1
:1005300087FD3A95F901EE0FFF1F2E0F3F1FF901BE
:10054000ED5CFD4F808160E08F736EDFD5CFF801E9
:1005500080819181049680349C4918F480E49CE960
:1005600004C0F801808191810496F7019183808312
:100570008FEF888344C0F801408151818881B9019F
:10058000680F711D87FD7A95CB01FB01EE0FFF1FF0
:100590008E0F9F1FFC01ED5CFD4F81819281840FC6
:1005A000951FF701918380838881A901480F511D10
:1005B00087FD5A95CA01FA01EE0FFF1F8E0F9F1F8C
:1005C000FC01ED5CFD4F808186FF19C08881280FFA
:1005D000311D87FD3A95F901EE0FFF1F2E0F3F1FCA
:1005E000F901ED5CFD4F808161E08F73DF91CF9168
:1005F0001F910F91FF90EF90DF90CF9015CFDF917B
:10060000CF911F910F91FF90EF90DF90CF900895C1
:10061000CF93DF9390E0FC01E654FE4F2491FC0160
:10062000EC58FE4F8491882361F190E0880F991F68
:10063000FC01EA5DFE4FC591D491FC01E05CFE4FE8
:10064000A591B491611109C09FB7F8948881209554
:1006500082238883EC912E230BC0623061F49FB714
:10066000F8943881822F809583238883EC912E2BF8
:100670002C939FBF06C08FB7F894E8812E2B288358
:100680008FBFDF91CF9108958F929F92AF92BF92CB
:10069000CF92DF92EF92FF926B017C015CDE4B0107
:1006A0005C01C114D104E104F104E9F054DEDC0181
:1006B000CB0188199909AA09BB09883E9340A10575
:1006C000B10578F321E0C21AD108E108F10888EEFB
:1006D000880E83E0981EA11CB11CC114D104E10452
:1006E000F10421F7DECFFF90EF90DF90CF90BF9025
:1006F000AF909F908F9008951F920F920FB60F9218
:1007000011242F933F938F939F93AF93BF93809127
:10071000C4029091C502A091C602B091C702309167
:10072000C30223E0230F2D3720F40196A11DB11D34
:1007300005C026E8230F0296A11DB11D2093C30218
:100740008093C4029093C502A093C602B093C702DF
:100750008091C8029091C902A091CA02B091CB02C7
:100760000196A11DB11D8093C8029093C902A09368
:10077000CA02B093CB02BF91AF919F918F913F91ED
:100780002F910F900FBE0F901F901895CF92DF9270
:10079000EF92FF92CF93DF93EC01603282E0780713
:1007A0000CF03DC077FD06C0653B71052CF064EB95
:1007B00070E002C060E070E0898128E830E0690103
:1007C000C81AD10887FDD394CC0CDD1CCC0CDD1CE1
:1007D0000D2C000CEE08FF088A8128E532E0281B6A
:1007E000310987FD3395220F331F220F331FC901B3
:1007F000330FAA0BBB0B9C01AD012C193D094E090F
:100800005F09DB010E94041224EB30E040E050E07D
:100810000E94DE11C20ED31EE41EF51EB6018881B1
:10082000803380F5998148E850E0491B510997FDD4
:100830005395440F551F440F551F6417750784F0D7
:100840009A8128E532E0291B310997FD3395220F63
:10085000331F220F331FAB01261737070CF4A901F2
:1008600042505109440F551F2FB7F89490E0FC01F6
:10087000EE0FFF1F8E0F9F1FFC01ED5CFD4F52839B
:1008800041832FBFDF91CF91FF90EF90DF90CF900A
:1008900008951F93CF93DF93EC01162F8881803347
:1008A00008F04DC061E0812FB3DE8881E82FF0E0D1
:1008B0009F01220F331FE20FF31FED5CFD4F1F73EB
:1008C0009081907C192B108319821A826CE00E940F
:1008D000AA149CE0899FB001112440E050E09A01E5
:1008E000260F371FF901EE0FFF1F2E0F3F1FF901D3
:1008F000ED5CFD4F908196FD16C04F5F5F4F4C3011
:10090000510569F7813001F51092800082E08093F3
:1009100081001092850010928400B19A80916F003E
:10092000826080936F00E881F0E0CF01880F991F0B
:10093000E80FF91FED5CFD4F808180648083888122
:10094000DF91CF911F910895823061F41092900051
:1009500080939100109295001092940088BB809330
:100960007100E1CF833069F41092A00082E080939F
:10097000A1001092A5001092A40089BB8093720080
:10098000D2CF8111D0CF1092200182E0809321013B
:1009900010922501109224018ABB80937300C3CF6B
:1009A0001F920F920FB60F9211240BB60F922F9336
:1009B0003F934F935F936F937F938F939F93AF93E7
:1009C000BF93EF93FF9348E251E064E271E080E06F
:1009D00090E059DDFF91EF91BF91AF919F918F9181
:1009E0007F916F915F914F913F912F910F900BBE2F
:1009F0000F900FBE0F901F9018951F920F920FB679
:100A00000F9211240BB60F922F933F934F935F9346
:100A10006F937F938F939F93AF93BF93EF93FF93C6
:100A200048EA50E064EA70E083E090E02CDDFF915A
:100A3000EF91BF91AF919F918F917F916F915F9156
:100A40004F913F912F910F900BBE0F900FBE0F90C3
:100A50001F9018951F920F920FB60F9211240BB68C
:100A60000F922F933F934F935F936F937F938F9347
:100A70009F93AF93BF93EF93FF9348E950E064E9EE
:100A800070E082E090E0FFDCFF91EF91BF91AF91C9
:100A90009F918F917F916F915F914F913F912F9196
:100AA0000F900BBE0F900FBE0F901F9018951F92C6
:100AB0000F920FB60F9211240BB60F922F933F9304
:100AC0004F935F936F937F938F939F93AF93BF9356
:100AD000EF93FF9348E850E064E870E081E090E035
:100AE000D2DCFF91EF91BF91AF919F918F917F9158
:100AF0006F915F914F913F912F910F900BBE0F908F
:100B00000FBE0F901F901895789484B5826084BDB5
:100B100084B5816084BD85B5826085BD85B5816001
:100B200085BD80916E00816080936E00109281007F
:100B3000809181008260809381008091810081603A
:100B400080938100809180008160809380008091FB
:100B5000B10084608093B1008091B0008160809387
:100B6000B00080919100826080939100809191000B
:100B700081608093910080919000816080939000CB
:100B80008091A10082608093A1008091A10081608A
:100B90008093A1008091A00081608093A00080914B
:100BA00021018260809321018091210181608093E5
:100BB00021018091200181608093200180917A0041
:100BC000846080937A0080917A00826080937A00BA
:100BD00080917A00816080937A0080917A008068A9
:100BE00080937A001092C10060E08EE011DD60E039
:100BF0008FE00EDD60E080E10BDD60E081E108DD8B
:100C000060E08EE011DC60E08FE00EDC60E080E10F
:100C10000BDC60E081E108DC62E070E081E292E000
:100C200038DE63E070E08EE192E033DE64E070E095
:100C30008BE192E02EDE65E070E088E192E029DE53
:100C400066E070E085E192E024DE67E070E082E13A
:100C500092E01FDE68E070E08FE092E01ADE69E06B
:100C600070E08CE092E015DE6AE070E089E092E0EE
:100C700010DE6BE070E086E092E00BDE6CE070E08E
:100C800083E092E006DE6DE070E080E092E001DE5D
:100C900069E370E081E292E079DD65E470E08EE185
:100CA00092E074DD6AE570E08BE192E06FDD6AE668
:100CB00070E088E192E06ADD6BE770E085E192E048
:100CC00065DD62E870E082E192E060DD6BE770E094
:100CD0008FE092E05BDD6AE670E08CE092E056DD4A
:100CE00064E570E089E092E051DD6FE370E086E05A
:100CF00092E04CDD63E370E083E092E047DD63E384
:100D000070E080E092E042DD8EE5282E33243394BB
:100D10008EE062DB90932D0280932C028FE05CDBEF
:100D20006C0190932B0280932A0280E155DB7C01B9
:100D3000909329028093280281E14EDB8C019093ED
:100D40002702809326021092250210922402C0915D
:100D50002402D0912502C83681E0D8070CF061C189
:100D600063E070E080E090E08FDCBE010D2E000CAF
:100D7000880B990B0E943E1320ED3FE049E450E4BC
:100D80000E94031420E030E044E353E40E94A312E5
:100D90004B015C0124EB38EC46E350E40E943C122A
:100DA0000E94A01220E030E040E252E40E940314CE
:100DB00020E030E040EC52E40E943C120E940B1311
:100DC00081E292E0E3DC2AE23AE342E150E4C50149
:100DD000B4010E943C120E94A01220E030E040E2E8
:100DE00052E40E94031420E030E040EC52E40E9400
:100DF0003C120E940B138EE192E0C8DC2FE337E532
:100E00004BED5FE3C501B4010E943C120E94A012A9
:100E100020E030E040E252E40E94031420E030E0A1
:100E200040EC52E40E943C120E940B138BE192E0D2
:100E3000ADDC2AE23AE342E95FE3C501B4010E9476
:100E40003C120E94A01220E030E040E252E40E94F6
:100E5000031420E030E044EB52E40E943C120E9474
:100E60000B1388E192E092DC2AE23AE342E15FE38D
:100E7000C501B4010E943C120E94A01220E030E0A3
:100E800040E252E40E94031420E030E044EB52E4DC
:100E90000E943C120E940B1385E192E077DC20E077
:100EA00030E0A901C501B4010E943C120E94A012C9
:100EB00020E030E040E252E40E94031420E030E001
:100EC00044EB52E40E943C120E940B1382E192E038
:100ED0005DDC2AE23AE342E15FE3C501B4010E942E
:100EE0003B120E94A01220E030E040E252E40E9457
:100EF000031420E030E044EB52E40E943C120E94D4
:100F00000B138FE092E042DC2AE23AE342E95FE32E
:100F1000C501B4010E943B120E94A01220E030E003
:100F200040E252E40E94031420E030E044EB52E43B
:100F30000E943C120E940B138CE092E027DC2FE30E
:100F400037E54BED5FE3C501B4010E943B120E94FF
:100F5000A01220E030E040E252E40E94031420E0BE
:100F600030E044EB52E40E943C120E940B1389E0F3
:100F700092E00CDC2AE23AE342E150E4C501B4011C
:100F80000E943B120E94A01220E030E040E252E4B6
:100F90000E94031420E030E044EB52E40E943C1233
:100FA0000E940B1386E092E0F1DB24EB38EC46E381
:100FB00050E4C501B4010E943B120E94A01220E03F
:100FC00030E040E252E40E94031420E030E044EBC1
:100FD00052E40E943C120E940B1383E092E0D6DBA5
:100FE0002FE337E54BE550E4C501B4010E943B1205
:100FF0000E94A01220E030E040E252E40E9403147C
:1010000020E030E044EB52E40E943C120E940B13BB
:1010100080E092E0BBDB2196D0932502C0932402AE
:1010200096CECA94CD2829F0EA94EF2809F06FC132
:1010300073C188E691E09093250280932402C091C9
:101040002402D09125021C161D0674F763E070E09F
:1010500080E090E019DBBE010D2E000C880B990B8F
:101060000E943E1320ED3FE049E450E40E94031447
:1010700020E030E044E353E40E94A3124B015C0102
:1010800024EB38EC46E350E40E943C120E94A0128C
:1010900020E030E040E252E40E94031420E030E01F
:1010A00040EC52E40E943C120E940B1381E292E059
:1010B0006DDB2AE23AE342E150E4C501B4010E944B
:1010C0003C120E94A01220E030E040E252E40E9474
:1010D000031420E030E040EC52E40E943C120E94F5
:1010E0000B138EE192E052DB2FE337E54BED5FE32C
:1010F000C501B4010E943C120E94A01220E030E021
:1011000040E252E40E94031420E030E040EC52E45C
:101110000E943C120E940B138BE192E037DB2AE223
:101120003AE342E95FE3C501B4010E943C120E9428
:10113000A01220E030E040E252E40E94031420E0DC
:1011400030E044EB52E40E943C120E940B1388E111
:1011500092E01CDB2AE23AE342E15FE3C501B4011D
:101160000E943C120E94A01220E030E040E252E4D3
:101170000E94031420E030E044EB52E40E943C1251
:101180000E940B1385E192E001DB20E030E0A90131
:10119000C501B4010E943C120E94A01220E030E080
:1011A00040E252E40E94031420E030E044EB52E4B9
:1011B0000E943C120E940B1382E192E0E7DA2AE2DD
:1011C0003AE342E15FE3C501B4010E943B120E9491
:1011D000A01220E030E040E252E40E94031420E03C
:1011E00030E044EB52E40E943C120E940B138FE06B
:1011F00092E0CCDA2AE23AE342E95FE3C501B401C6
:101200000E943B120E94A01220E030E040E252E433
:101210000E94031420E030E044EB52E40E943C12B0
:101220000E940B138CE092E0B1DA2FE337E54BED2F
:101230005FE3C501B4010E943B120E94A01220E0AE
:1012400030E040E252E40E94031420E030E044EB3E
:1012500052E40E943C120E940B1389E092E096DA5D
:101260002AE23AE342E150E4C501B4010E943B1294
:101270000E94A01220E030E040E252E40E940314F9
:1012800020E030E044EB52E40E943C120E940B1339
:1012900086E092E07BDA24EB38EC46E350E4C501CB
:1012A000B4010E943B120E94A01220E030E040E214
:1012B00052E40E94031420E030E044EB52E40E9428
:1012C0003C120E940B1383E092E060DA2FE337E5D3
:1012D0004BE550E4C501B4010E943B120E94A012EC
:1012E00020E030E040E252E40E94031420E030E0CD
:1012F00044EB52E40E943C120E940B1380E092E007
:1013000045DA2197D0932502C093240298CE01306C
:10131000110509F021C428C410922502109224025C
:10132000C0912402D0912502CA30D1050CF071C1C0
:1013300063E070E080E090E0A7D9BE010D2E000CC4
:10134000880B990B0E943E136B017C012DEC3CEC49
:101350004CEC5DE30E94031420E030E040EA50E4EE
:101360000E9403142B013C0120E030E040EC52E4E9
:101370000E943C124B015C0120ED3FE049E450E447
:10138000C701B6010E94031420E030E044E353E4B7
:101390000E94A3126B017C0124EB38EC46E350E47D
:1013A0000E943C120E94A01220E030E040E252E491
:1013B0000E9403149B01AC01C501B4010E943C12C0
:1013C0000E940B1381E292E0E1D92AE23AE342E182
:1013D00050E4C701B6010E943C120E94A01220E016
:1013E00030E040E252E40E9403149B01AC01C501CD
:1013F000B4010E943C120E940B138EE192E0C6D908
:101400002FE337E54BED5FE3C701B6010E943C12C5
:101410000E94A01220E030E040E252E40E94031457
:101420009B01AC01C501B4010E943C120E940B1348
:101430008BE192E0ABD920E030E044EB52E4C30111
:10144000B2010E943C124B015C012AE23AE342E9FC
:101450005FE3C701B6010E943C120E94A01220E087
:1014600030E040E252E40E9403149B01AC01C5014C
:10147000B4010E943C120E940B1388E192E086D9CD
:101480002AE23AE342E15FE3C701B601F5D70E94E1
:10149000A01220E030E040E252E40E9403149B01DD
:1014A000AC01C501B401E8D70E940B1385E192E0BD
:1014B0006DD920E030E0A901C701B601DDD70E9457
:1014C000A01220E030E040E252E40E9403149B01AD
:1014D000AC01C501B401D0D70E940B1382E192E0A8
:1014E00055D92AE23AE342E15FE3C701B601C3D727
:1014F0000E94A01220E030E040E252E40E94031477
:101500009B01AC01C501B401B7D70E940B138FE05A
:1015100092E03CD92AE23AE342E95FE3C701B6012F
:10152000AAD70E94A01220E030E040E252E40E94DC
:1015300003149B01AC01C501B4019ED70E940B139B
:101540008CE092E023D92FE337E54BED5FE3C70151
:10155000B60191D7F5D720E030E040E252E40E9496
:1015600003149B01AC01C501B40186D70E940B1383
:1015700089E092E00BD92AE23AE342E150E4C70164
:10158000B60179D7DDD720E030E040E252E40E9496
:1015900003149B01AC01C501B4016ED70E940B136B
:1015A00086E092E0F3D824EB38EC46E350E4C70140
:1015B000B60161D7C5D720E030E040E252E40E9496
:1015C00003149B01AC01C501B40156D70E940B1353
:1015D00083E092E0DBD82FE337E54BE550E4C70129
:1015E000B60149D7ADD720E030E040E252E40E9496
:1015F00003149B01AC01C501B4013ED70E940B133B
:1016000080E092E0C3D82196D0932502C0932402B3
:1016100087CE8BE090E09093250280932402C091C6
:101620002402D0912502CE3591E0D9070CF033C1C8
:1016300063E070E080E090E027D8BE010D2E000C42
:10164000880B990B0E943E1320ED3FE049E450E4E3
:101650000E94031420E030E044E353E474D76B01AC
:101660007C0124EB38EC46E350E406D769D720E050
:1016700030E040E252E40E94031420E030E04AEC03
:1016800052E4FAD6C8D781E292E080D82AE23AE35F
:1016900042E150E4C701B601EFD652D720E030E076
:1016A00040E252E40E94031420E030E04AEC52E4AD
:1016B000E3D6B1D78EE192E069D82FE337E54BED61
:1016C0005FE3C701B601D8D63BD720E030E040E267
:1016D00052E40E94031420E030E04AEC52E4CCD6FD
:1016E0009AD78BE192E052D82AE23AE342E95FE3EB
:1016F000C701B601C1D624D720E030E040E252E471
:101700000E94031420E030E04EEB52E4B5D683D7BC
:1017100088E192E03BD82AE23AE342E15FE3C70185
:10172000B601AAD60DD720E030E040E252E40E9494
:10173000031420E030E04EEB52E49ED66CD785E1F6
:1017400092E024D820E030E0A901C701B60194D688
:10175000F7D620E030E040E252E40E94031420E09B
:1017600030E04EEB52E488D656D782E192E00ED8B4
:101770002AE23AE342E15FE3C701B6017CD6E0D654
:1017800020E030E040E252E40E94031420E030E028
:101790004EEB52E471D63FD78FE092E00E94C60331
:1017A0002AE23AE342E95FE3C701B60164D6C8D64C
:1017B00020E030E040E252E40E94031420E030E0F8
:1017C0004EEB52E459D627D78CE092E00E94C60334
:1017D0002FE337E54BED5FE3C701B6014CD6B0D63A
:1017E00020E030E040E252E40E94031420E030E0C8
:1017F0004EEB52E441D60FD789E092E00E94C60337
:101800002AE23AE342E150E4C701B60134D698D661
:1018100020E030E040E252E4F6D720E030E04EEB4A
:1018200052E42AD6F8D686E092E00E94C60324EB62
:1018300038EC46E350E4C701B6011DD681D620E05E
:1018400030E040E252E4DFD720E030E04EEB52E4FB
:1018500013D6E1D683E092E00E94C6032FE337E57A
:101860004BE550E4C701B60106D66AD620E030E069
:1018700040E252E4C8D720E030E04EEB52E4FCD521
:10188000CAD680E092E00E94C6032196D09325023A
:10189000C0932402C4CE3092250220922402C0912B
:1018A0002402D0912502C83681E0D8070CF02FCD54
:1018B00063E070E080E090E00E94440368E671E03D
:1018C0006C1B7D0B072E000C880B990BD7D62DECCB
:1018D0003CEC4CEC5DE397D720E030E040EA50E48C
:1018E00092D72B013C0120E030E040EC52E4C4D51B
:1018F0004B015C01BE010D2E000C880B990BBED66E
:1019000020ED3FE049E450E47ED720E030E044E3BE
:1019100053E419D66B017C0124EB38EC46E350E428
:10192000ABD50ED620E030E040E252E46CD79B010C
:10193000AC01C501B401A0D56ED681E292E00E944F
:10194000C6032AE23AE342E150E4C701B60194D566
:10195000F7D520E030E040E252E455D79B01AC01DE
:10196000C501B40189D557D68EE192E00E94C60325
:101970002FE337E54BED5FE3C701B6017DD5E0D539
:1019800020E030E040E252E43ED79B01AC01C501CB
:10199000B40172D540D68BE192E00E94C60320E0EC
:1019A00030E044EB52E4C301B20166D54B015C0167
:1019B0002AE23AE342E95FE3C701B6015DD5C0D54B
:1019C00020E030E040E252E41ED79B01AC01C501AB
:1019D000B40152D520D688E192E00E94C6032AE2E3
:1019E0003AE342E15FE3C701B60146D5A9D520E05D
:1019F00030E040E252E407D79B01AC01C501B401DD
:101A00003BD509D685E192E00E94C60320E030E094
:101A1000A901C701B60130D593D520E030E040E2FE
:101A200052E4F1D69B01AC01C501B40125D5F3D533
:101A300082E192E00E94C6032AE23AE342E15FE3D8
:101A4000C701B60118D57CD520E030E040E252E471
:101A5000DAD69B01AC01C501B4010ED5DCD58FE00F
:101A600092E00E94C6032AE23AE342E95FE3C7013B
:101A7000B60101D565D520E030E040E252E4C3D69E
:101A80009B01AC01C501B401F7D4C5D58CE092E04F
:101A90000E94C6032FE337E54BED5FE3C701B601B4
:101AA000EAD44ED520E030E040E252E4ACD69B01CF
:101AB000AC01C501B401E0D4AED589E092E00E944A
:101AC000C6032AE23AE342E150E4C701B601D3D4A7
:101AD00037D520E030E040E252E495D69B01AC01DE
:101AE000C501B401C9D497D586E092E00E94C6032F
:101AF00024EB38EC46E350E4C701B601BCD420D552
:101B000020E030E040E252E47ED69B01AC01C5010A
:101B1000B401B2D480D583E092E00E94C6032FE3E3
:101B200037E54BE550E4C701B601A5D409D520E05F
:101B300030E040E252E467D69B01AC01C501B4013C
:101B40009BD469D580E092E00E94C6032196D09391
:101B50002502C0932402A3CE80E090E0892B09F4F3
:101B6000D7C80E940000D4C8109225021092240207
:101B7000C0912402D0912502CA30D1050CF04FC18A
:101B800063E070E080E090E00E944403BE010D2E0F
:101B9000000C880B990B72D56B017C012DEC3CEC91
:101BA0004CEC5DE330D620E030E040EA50EC2BD640
:101BB0002B013C0120E030E040EC52E45DD44B01CD
:101BC0005C0120ED3FE049E450E4C701B6011BD6BB
:101BD00020E030E044E353E4B6D46B017C0124EB15
:101BE00038EC46E350E448D4ABD420E030E040E2A7
:101BF00052E409D69B01AC01C501B4013DD40BD51B
:101C000081E292E00E94C6032AE23AE342E150E414
:101C1000C701B60131D494D420E030E040E252E470
:101C2000F2D59B01AC01C501B40126D4F4D48EE1F8
:101C300092E00E94C6032FE337E54BED5FE3C70157
:101C4000B6011AD47DD420E030E040E252E4DBD586
:101C50009B01AC01C501B4010FD4DDD48BE192E04E
:101C60000E94C60320E030E044EB52E4C301B2011D
:101C700003D44B015C012AE23AE342E95FE3C70186
:101C8000B601FAD35DD420E030E040E252E4BBD5A7
:101C90009B01AC01C501B401EFD3BDD488E192E052
:101CA0000E94C6032AE23AE342E15FE3C701B601BC
:101CB000E3D346D420E030E040E252E4A4D59B01D7
:101CC000AC01C501B401D8D3A6D485E192E00E944D
:101CD000C60320E030E0A901C701B601CDD330D45E
:101CE00020E030E040E252E48ED59B01AC01C5011A
:101CF000B401C2D390D482E192E00E94C6032AE2EA
:101D00003AE342E15FE3C701B601B5D319D420E05D
:101D100030E040E252E477D59B01AC01C501B4014B
:101D2000ABD379D48FE092E00E94C6032AE23AE373
:101D300042E95FE3C701B6019ED302D420E030E060
:101D400040E252E460D59B01AC01C501B40194D3DB
:101D500062D48CE092E00E94C6032FE337E54BED9E
:101D60005FE3C701B60187D3EBD320E030E040E268
:101D700052E449D59B01AC01C501B4017DD34BD4DC
:101D800089E092E00E94C6032AE23AE342E150E48D
:101D9000C701B60170D3D4D320E030E040E252E472
:101DA00032D59B01AC01C501B40166D334D486E0C1
:101DB00092E00E94C60324EB38EC46E350E4C701EE
:101DC000B60159D3BDD320E030E040E252E41BD548
:101DD0009B01AC01C501B4014FD31DD483E092E057
:101DE0000E94C6032FE337E54BE550E4C701B60177
:101DF00042D3A6D320E030E040E252E404D59B0178
:101E0000AC01C501B40138D306D480E092E00E9451
:101E1000C6032196D0932502C0932402A9CE8BE05D
:101E200090E09093250280932402C0912402D091E7
:101E30002502CE3591E0D9070CF02FC163E070E0A8
:101E400080E090E00E944403BE010D2E000C880B40
:101E5000990B14D420ED3FE049E450E4D4D420E0C1
:101E600030E044E353E46FD36B017C0124EB38ECA6
:101E700046E350E401D364D320E030E040E252E492
:101E8000C2D420E030E046EB52E4F6D2C4D381E283
:101E900092E00E94C6032AE23AE342E150E4C7011D
:101EA000B601EAD24DD320E030E040E252E4ABD4B8
:101EB00020E030E046EB52E4DFD2ADD38EE192E099
:101EC0000E94C6032FE337E54BED5FE3C701B60180
:101ED000D3D236D320E030E040E252E494D420E084
:101EE00030E046EB52E4C8D296D38BE192E00E94F8
:101EF000C6032AE23AE342E95FE3C701B601BCD276
:101F00001FD320E030E040E252E47DD420E030E016
:101F10004AEA52E4B1D27FD388E192E00E94C6033C
:101F20002AE23AE342E15FE3C701B601A5D208D352
:101F300020E030E040E252E466D420E030E04AEABB
:101F400052E49AD268D385E192E00E94C60320E071
:101F500030E0A901C701B6018FD2F2D220E030E013
:101F600040E252E450D420E030E04AEA52E484D225
:101F700052D382E192E00E94C6032AE23AE342E1B0
:101F80005FE3C701B60177D2DBD220E030E040E268
:101F900052E439D420E030E04AEA52E46DD23BD337
:101FA0008FE092E00E94C6032AE23AE342E95FE34F
:101FB000C701B60160D2C4D220E030E040E252E472
:101FC00022D420E030E04AEA52E456D224D38CE016
:101FD00092E00E94C6032FE337E54BED5FE3C701B4
:101FE000B60149D2ADD220E030E040E252E40BD459
:101FF00020E030E04AEA52E43FD20DD389E092E09B
:102000000E94C6032AE23AE342E150E4C701B60166
:1020100032D296D220E030E040E252E4F4D320E025
:1020200030E04AEA52E428D2F6D286E092E00E94FA
:10203000C60324EB38EC46E350E4C701B6011BD2DB
:102040007FD220E030E040E252E4DDD320E030E017
:102050004AEA52E411D2DFD283E092E00E94C60342
:102060002FE337E54BE550E4C701B60104D268D24F
:1020700020E030E040E252E4C6D320E030E04AEA1B
:1020800052E4FAD1C8D280E092E00E94C6032196C1
:10209000D0932502C0932402C8CE3092250220920C
:1020A0002402C0912402D0912502C83681E0D807CD
:1020B0000CF052CD63E070E080E090E00E944403B9
:1020C00068E671E06C1B7D0B072E000C880B990BEA
:1020D000D5D22DEC3CEC4CEC5DE395D320E030E028
:1020E00040EA50EC90D32B013C0120E030E040EC82
:1020F00052E4C2D14B015C01BE010D2E000C880BD5
:10210000990BBCD220ED3FE049E450E47CD320E0C1
:1021100030E044E353E417D26B017C0124EB38EC4C
:1021200046E350E4A9D10CD220E030E040E252E492
:102130006AD39B01AC01C501B4019ED16CD281E28E
:1021400092E00E94C6032AE23AE342E150E4C7016A
:10215000B60192D1F5D120E030E040E252E453D311
:102160009B01AC01C501B40187D155D28EE192E04B
:102170000E94C6032FE337E54BED5FE3C701B601CD
:102180007BD1DED120E030E040E252E43CD39B0141
:10219000AC01C501B40170D13ED28BE192E00E9446
:1021A000C60320E030E044EB52E4C301B20164D145
:1021B0004B015C012AE23AE342E95FE3C701B60161
:1021C0005BD1BED120E030E040E252E41CD39B0161
:1021D000AC01C501B40150D11ED288E192E00E9449
:1021E000C6032AE23AE342E15FE3C701B60144D104
:1021F000A7D120E030E040E252E405D39B01AC01DE
:10220000C501B40139D107D285E192E00E94C6032D
:1022100020E030E0A901C701B6012ED191D120E024
:1022200030E040E252E4EFD29B01AC01C501B401C1
:1022300023D1F1D182E192E00E94C6032AE23AE37F
:1022400042E15FE3C701B60116D17AD120E030E068
:1022500040E252E4D8D29B01AC01C501B4010CD1DB
:10226000DAD18FE092E00E94C6032AE23AE342E923
:102270005FE3C701B601FFD063D120E030E040E268
:1022800052E4C1D29B01AC01C501B401F5D0C3D168
:102290008CE092E00E94C6032FE337E54BED5FE34D
:1022A000C701B601E8D04CD120E030E040E252E472
:1022B000AAD29B01AC01C501B401DED0ACD189E04A
:1022C00092E00E94C6032AE23AE342E150E4C701E9
:1022D000B601D1D035D120E030E040E252E493D2D3
:1022E0009B01AC01C501B401C7D095D186E092E055
:1022F0000E94C60324EB38EC46E350E4C701B60164
:10230000BAD01ED120E030E040E252E47CD29B0102
:10231000AC01C501B401B0D07ED183E092E00E944F
:10232000C6032FE337E54BE550E4C701B601A3D060
:1023300007D120E030E040E252E465D29B01AC01DD
:10234000C501B40199D067D180E092E00E94C60334
:102350002196D0932502C0932402A3CE81E292E07D
:102360000E94D0018EE192E00E94D0018BE192E0C8
:102370000E94D00188E192E00E94D00185E192E0C4
:102380000E94D00182E192E00E94D0018FE092E0B1
:102390000E94D0018CE092E00E94D00189E092E09E
:1023A0000E94D00186E092E00E94D00183E092E09A
:1023B0000E94D00180E092E00C94D001052E97FBA2
:1023C00016F400940FD057FD05D024D007FC02D09E
:1023D00046F408C050954095309521953F4F4F4F9A
:1023E0005F4F089590958095709561957F4F8F4FC1
:1023F0009F4F089531D0A59F900DB49F900DA49F3D
:10240000800D911D11240895B7FFF4CFF3DF821BD7
:10241000930B0895A1E21A2EAA1BBB1BFD010DC050
:10242000AA1FBB1FEE1FFF1FA217B307E407F50784
:1024300020F0A21BB30BE40BF50B661F771F881F60
:10244000991F1A9469F760957095809590959B01F6
:10245000AC01BD01CF010895A29FB001B39FC0019F
:10246000A39F700D811D1124911DB29F700D811DC0
:102470001124911D08955058BB27AA270ED078C16A
:1024800041D130F046D120F031F49F3F11F41EF4D9
:1024900036C10EF4E095E7FB2CC1E92F8BD180F318
:1024A000BA17620773078407950718F071F49EF551
:1024B000A3C10EF4E0950B2EBA2FA02D0B01B9018C
:1024C00090010C01CA01A0011124FF27591B99F0AA
:1024D000593F50F4503E68F11A16F040A22F232FB6
:1024E000342F4427585FF3CF469537952795A79506
:1024F000F0405395C9F77EF41F16BA0B620B730BAD
:10250000840BBAF09150A1F0FF0FBB1F661F771F1D
:10251000881FC2F70EC0BA0F621F731F841F48F4D2
:10252000879577956795B795F7959E3F08F0B3CF58
:102530009395880F08F09927EE0F97958795089542
:10254000F0D0E39526C10CD013C1E3D040F0DAD02F
:1025500030F021F45F3F19F0CCC051114EC1CFC013
:1025600029D198F39923C9F35523B1F3951B550B42
:10257000BB27AA2762177307840738F09F5F5F4F56
:10258000220F331F441FAA1FA9F333D00E2E3AF097
:10259000E0E830D091505040E695001CCAF729D0B1
:1025A000FE2F27D0660F771F881FBB1F2617370700
:1025B0004807AB07B0E809F0BB0B802DBF01FF2730
:1025C00093585F4F2AF09E3F510568F092C015C1A5
:1025D0005F3FECF3983EDCF3869577956795B7956A
:1025E000F7959F5FC9F7880F911D9695879597F985
:1025F0000895E1E0660F771F881FBB1F62177307FE
:102600008407BA0720F0621B730B840BBA0BEE1F12
:1026100088F7E095089504D06894B111EEC008954C
:10262000D1D088F09F5790F0B92F9927B751A0F0DB
:10263000D1F0660F771F881F991F1AF0BA95C9F756
:1026400012C0B13081F0D8D0B1E00895D5C0672F65
:10265000782F8827B85F39F0B93FCCF38695779506
:102660006795B395D9F73EF49095809570956195EF
:102670007F4F8F4F9F4F0895E89409C097FB3EF41A
:1026800090958095709561957F4F8F4F9F4F9923BF
:10269000A9F0F92F96E9BB279395F695879577953D
:1026A0006795B795F111F8CFFAF4BB0F11F460FFFD
:1026B0001BC06F5F7F4F8F4F9F4F16C0882311F055
:1026C00096E911C0772321F09EE8872F762F05C069
:1026D000662371F096E8862F70E060E02AF09A9504
:1026E000660F771F881FDAF7880F9695879597F9F9
:1026F000089597F99F6780E870E060E008959FEF84
:1027000080EC089500240A94161617061806090688
:10271000089500240A941216130614060506089557
:10272000EECF50D0E8F3E894E0E0BB279F57F0F0FD
:102730002AED3FE049EC06C0EE0FBB0F661F771F86
:10274000881F28F0B23A62077307840728F0B25A4C
:10275000620B730B840BE3959A9572F7803830F413
:102760009A95BB0F661F771F881FD2F79048B0C09D
:10277000092E0394000C11F4882352F0BB0F40F48F
:10278000BF2B11F460FF04C06F5F7F4F8F4F9F4FCF
:102790000895EF93E0FF06C0A2EA2AED3FE049EC7E
:1027A0005FEB7BDEE5DF0F90039401FC9058E8E0DF
:1027B000F1E09AC057FD9058440F551F59F05F3F04
:1027C00071F04795880F97FB991F61F09F3F79F053
:1027D00087950895121613061406551FF2CF4695D5
:1027E000F1DF08C0161617061806991FF1CF869557
:1027F0007105610508940895E894BB27662777273B
:10280000CB0197F908950BD0B3CF7CDF28F081DF9F
:1028100018F0952309F06DCF72CF1124EECFCADFE7
:10282000A0F3959FD1F3950F50E0551F629FF001E3
:10283000729FBB27F00DB11D639FAA27F00DB11D3C
:10284000AA1F649F6627B00DA11D661F829F2227C5
:10285000B00DA11D621F739FB00DA11D621F839F4C
:10286000A00D611D221F749F3327A00D611D231F22
:10287000849F600D211D822F762F6A2F11249F5770
:1028800050408AF0E1F088234AF0EE0FFF1FBB1F93
:10289000661F771F881F91505040A9F79E3F510532
:1028A00070F027CFAACF5F3FECF3983EDCF386951C
:1028B00077956795B795F795E7959F5FC1F7FE2BDD
:1028C000880F911D9695879597F908959F3F31F050
:1028D000915020F4879577956795B795880F911D4E
:1028E0009695879597F908959F938F937F936F930C
:1028F000FF93EF939B01AC0186DFEF91FF9105D031
:102900002F913F914F915F917ECFDF93CF931F9394
:102910000F93FF92EF92DF927B018C01689405C0C8
:10292000DA2EEF017CDFFE01E894A5912591359127
:1029300045915591AEF3EF01B0DDFE019701A8017D
:10294000DA9479F7DF90EF90FF900F911F91CF917C
:10295000DF910895991B79E004C0991F961708F03C
:10296000961B881F7A95C9F780950895EE0FFF1F73
:10297000881F8BBF0790F691E02D1994F894FFCF34
:020000023000CC
:10E000000D9489F10D94B2F10D94B2F10D94B2F129
:10E010000D94B2F10D94B2F10D94B2F10D94B2F1F0
:10E020000D94B2F10D94B2F10D94B2F10D94B2F1E0
:10E030000D94B2F10D94B2F10D94B2F10D94B2F1D0
:10E040000D94B2F10D94B2F10D94B2F10D94B2F1C0
:10E050000D94B2F10D94B2F10D94B2F10D94B2F1B0
:10E060000D94B2F10D94B2F10D94B2F10D94B2F1A0
:10E070000D94B2F10D94B2F10D94B2F10D94B2F190
:10E080000D94B2F10D94B2F10D94B2F10D94B2F180
:10E090000D94B2F10D94B2F10D94B2F10D94B2F170
:10E0A0000D94B2F10D94B2F10D94B2F10D94B2F160
:10E0B0000D94B2F10D94B2F10D94B2F10D94B2F150
:10E0C0000D94B2F10D94B2F10D94B2F10D94B2F140
:10E0D0000D94B2F10D94B2F10D94B2F10D94B2F130
:10E0E0000D94B2F141546D656761323536300041AF
:10E0F000726475696E6F206578706C6F72657220DE
:10E1000073746B3530305632206279204D4C530099
:10E11000426F6F746C6F616465723E004875683F52
:10E1200000436F6D70696C6564206F6E203D200048
:10E130004350552054797065202020203D20005FF9
:10E140005F4156525F415243485F5F3D2000415658
:10E1500052204C696243205665723D20004743437C
:10E160002056657273696F6E203D20004350552024
:10E1700049442020202020203D20004C6F7720663D
:10E18000757365202020203D20004869676820665F
:10E190007573652020203D200045787420667573D6
:10E1A00065202020203D20004C6F636B2066757336
:10E1B000652020203D20004D617220203720323024
:10E1C000313300312E362E3800342E332E350056A2
:10E1D00023202020414444522020206F7020636F70
:10E1E00064652020202020696E73747275637469E1
:10E1F0006F6E2061646472202020496E74657272B3
:10E20000757074006E6F20766563746F7200726A49
:10E210006D702020006A6D70200057686174207056
:10E220006F72743A00506F7274206E6F7420737541
:10E2300070706F72746564004D7573742062652030
:10E2400061206C6574746572002000577269747483
:10E25000696E672045450052656164696E672045B7
:10E26000450045452065727220636E743D00504F35
:10E27000525400303D5A65726F2061646472003FF1
:10E280003D43505520737461747300403D454550C3
:10E29000524F4D207465737400423D426C696E6B41
:10E2A000204C454400453D44756D70204545505215
:10E2B0004F4D00463D44756D7020464C415348001B
:10E2C000483D48656C70004C3D4C69737420492F83
:10E2D0004F20506F72747300513D51756974005234
:10E2E0003D44756D702052414D00563D73686F7707
:10E2F00020696E7465727275707420566563746FF0
:10E30000727300593D506F727420626C696E6B00BD
:10E310002A0011241FBECFEFD1E2DEBFCDBF01E046
:10E320000CBF12E0A0E0B2E0EEE1FDEF03E00BBFB6
:10E3300002C007900D92A030B107D9F712E0A0E01B
:10E34000B2E001C01D92AE30B107E1F70F9460F367
:10E350000D948DFE01E20EBF0FEF0DBF11241FBE05
:10E360000D9460F30D9400F020E030E040ED57E0B4
:10E3700005C0FA013197F1F72F5F3F4F2817390792
:10E38000C0F308959C01260F311DC901A0E0B0E043
:10E390002F5F3F4FABBFFC018791882361F08093D3
:10E3A000C6008091C00086FFFCCF8091C0008064D1
:10E3B0008093C000EACF08958DE08093C6008091DD
:10E3C000C00086FFFCCF8091C00080648093C000B5
:10E3D0008AE08093C6008091C00086FFFCCF8091C8
:10E3E000C00080648093C00008950F94C2F10F9420
:10E3F000DCF10895FC019081992359F09093C600B7
:10E400008091C00086FFFCCF8091C0008064809323
:10E41000C0003196992379F70895282F982F929567
:10E420009F70892F805D8A3308F0895F8093C600D2
:10E430008091C00086FFFCCF8091C00080648093F3
:10E44000C000822F8F70982F905D9A3308F0995FEB
:10E450009093C6008091C00086FFFCCF8091C000E1
:10E4600080648093C00008959C01FB01853691056E
:10E470001CF46330710594F0C90164E670E00F94F8
:10E480002EFE605D7F4F6093C6008091C00086FFC6
:10E49000FCCF8091C00080648093C0002B30310598
:10E4A00014F43297B4F0C90164E670E00F942EFEC4
:10E4B0006AE070E00F942EFE605D7F4F6093C600AF
:10E4C0008091C00086FFFCCF8091C0008064809363
:10E4D000C000C9016AE070E00F942EFEC0968093E0
:10E4E000C6008091C00086FFFCCF8091C000806490
:10E4F0008093C00008951F93182F8EE692EE60E07F
:10E500000F94C2F11093C6008091C00086FFFCCF2B
:10E510008091C00080648093C0000F94DCF11F9153
:10E5200008952F923F924F925F926F927F928F92B7
:10E530009F92AF92BF92CF92DF92EF92FF920F9392
:10E540001F93DF93CF93CDB7DEB762970FB6F894E2
:10E55000DEBF0FBECDBF382E622ECA01DB015C01CB
:10E560006D01772420E2222E2E010894411C511CBB
:10E570008BC081E0A81680E0B80681E0C80680E084
:10E58000D80628F0C601AA27BB270F940DF2BB2797
:10E59000AD2D9C2D8B2D0F940DF28A2D0F940DF225
:10E5A0002092C6008091C00086FFFCCF8091C00001
:10E5B00080648093C0009DE29093C6008091C0006B
:10E5C00086FFFCCF8091C00080648093C0002092C1
:10E5D000C6008091C00086FFFCCF8091C00080649F
:10E5E0008093C00019828601750188249924A1E0D6
:10E5F0003A1651F03A1620F0B2E03B1661F409C029
:10E600000BBFF701779007C0C7010F9477FE782EF4
:10E6100002C0F7017080872D0F940DF22092C60082
:10E620008091C00086FFFCCF8091C0008064809301
:10E63000C000872D8052F401EF70F0708F3520F408
:10E64000E40DF51D708204C0E40DF51D8EE280839B
:10E650000894E11CF11C011D111D0894811C911CE2
:10E6600090E18916910409F0C2CF80E190E0A0E02A
:10E67000B0E0A80EB91ECA1EDB1E198AC2010F9493
:10E68000FAF10F94DCF16A94662009F072CF629679
:10E690000FB6F894DEBF0FBECDBFCF91DF911F91B3
:10E6A0000F91FF90EF90DF90CF90BF90AF909F9031
:10E6B0008F907F906F905F904F903F902F90089534
:10E6C0002F923F924F925F926F927F928F929F9282
:10E6D000AF92BF92CF92DF92EF92FF920F931F9370
:10E6E000DF93CF93CDB7DEB7CD53D1400FB6F894BB
:10E6F000DEBF0FBECDBF01E20EBF0FEF0DBF94B75F
:10E70000F894A89514BE80916000886180936000A1
:10E7100010926000789493FF05C0E0910002F091A0
:10E7200001021995279A2F9A8091C00082608093E8
:10E73000C00080E18093C40088E18093C1000000A4
:10E74000EE24FF24870144E0A42EB12CCC24DD2448
:10E7500024C0C5010197F1F70894E11CF11C011DCB
:10E76000111D21E2E2162EE4F20620E0020720E06D
:10E77000120718F031E0C32ED12CC801B70127ECE5
:10E780003BE140E050E00F9441FE611571058105C9
:10E79000910519F485B1805885B98091C00087FD35
:10E7A00003C0C114D104A9F2A6014F5F5F4FC25E3E
:10E7B000DE4F59834883CE51D140C25EDE4F8881FF
:10E7C0009981CE51D140019711F00D9410FEC05D9A
:10E7D000DE4F19821882C053D14060E0C15DDE4F28
:10E7E0001882CF52D14088249924C35DDE4F19820C
:10E7F0001882CD52D140C05EDE4F188219821A8233
:10E800001B82C052D140CE5CDE4F188219821A8220
:10E810001B82C253D140EE24FF2487010BBFF701B6
:10E8200007911691C45CDE4F19830883CC53D14005
:10E830000D940BFEC25EDE4F28813981CE51D1404E
:10E840002130310509F52091C600C25EDE4F1982E4
:10E850001882CE51D14022C02F5F3F4F4F4F5F4FA4
:10E86000213082E138078AE7480780E0580780F0C6
:10E87000C45CDE4FE881F981CC53D140EF5FFF4F9C
:10E8800019F0EE27FF27099420E030E040E050E047
:10E890008091C00087FFE0CF2091C600C35DDE4FAE
:10E8A00048815981CD52D1404F5F5F4FC35DDE4FEC
:10E8B00059834883CD52D140213209F063C64A3092
:10E8C000510508F05FC60894811C911C53E0851621
:10E8D000910409F059C600E010E018C081E280936D
:10E8E000C6008091C00086FFFCCF8091C00080648C
:10E8F0008093C0002F5F3F4F2931310579F70F9486
:10E90000DCF10F5F1F4F0530110519F020E030E0FA
:10E91000E5CF10920A0210920B0210920C02109294
:10E920000D02109206021092070210920802109235
:10E930000902109202021092030210920402109235
:10E9400005028FEE90EE60E00F94F5F180E191EE1C
:10E9500060E00F94C2F18091C00087FFFCCF9091DE
:10E96000C600903608F09F759032B8F09093C600BC
:10E970008091C00086FFFCCF8091C00080648093AE
:10E98000C000A0E2A093C6008091C00086FFFCCF2B
:10E990008091C00080648093C000983409F4D7C18E
:10E9A0009934B8F4923409F459C1933458F490333B
:10E9B00019F1903308F4E3C59F33A1F1903409F0C5
:10E9C000DEC5BDC0953409F470C1963409F0D7C5D1
:10E9D00098C1923509F42BC2933538F49C3409F46C
:10E9E000F5C1913509F0CBC518C2963509F445C279
:10E9F000993509F0C4C567C483E792EE62E00F94CD
:10EA0000F5F110920602109207021092080210927D
:10EA1000090210920A0210920B0210920C0210923C
:10EA20000D0213C18FE792EE62E00F94F5F18FEEC5
:10EA300090EE60E00F94F5F181E291EE60E00F94CA
:10EA4000C2F187EB91EE60E00F94F5F180E391EE77
:10EA500060E00F94C2F184EE90EE60E00F94F5F167
:10EA60008FE391EE60E00F94C2F186E090E061E008
:10EA700070E00F9434F20F94DCF18DE591EE60E0DC
:10EA80000F94C2F189EC91EE60E00F94F5F18EE401
:10EA900091EE60E00F94C2F183EC91EE60E00F9490
:10EAA000F5F18CE691EE60E00F94C2F18EE10F94E7
:10EAB0000DF288E90F940DF281E00F940DF20F949E
:10EAC000DCF18BE791EE60E00F94C2F119E0E0E039
:10EAD000F0E010935700E4918E2F0F940DF20F94F5
:10EAE000DCF18AE891EE60E00F94C2F1E3E0F0E03F
:10EAF00010935700E4918E2F0F940DF20F94DCF1D8
:10EB000089E991EE60E00F94C2F1E2E0F0E0109349
:10EB10005700E4918E2F0F940DF20F94DCF188EAE8
:10EB200091EE60E00F94C2F1E1E0F0E01093570045
:10EB30001491812F0F940DF20F94DCF107CF8BE825
:10EB400092EE62E00F94F5F18BE492EE60E00F94A8
:10EB5000F5F10F94DCF100E010E019C0C8016F2D51
:10EB60000F947FFEFF2031F489E492EE60E00F9471
:10EB7000C2F10BC0F092C6008091C00086FFFCCFAE
:10EB80008091C00080648093C0000F5F1F4FC80158
:10EB900081519F41A0E0B0E0ABBFFC01F790BAE229
:10EBA000FB1621F0E2E000301E07C1F60F94DCF105
:10EBB0000F94DCF187E592EE60E00F94F5F10F948D
:10EBC000DCF1CC24DD2400E010E01EC0C8010F946D
:10EBD00077FEF82E882331F489E492EE60E00F94FA
:10EBE000C2F10BC08093C6008091C00086FFFCCFAD
:10EBF0008091C00080648093C000FE1419F00894D6
:10EC0000C11CD11C0F5F1F4FC80181519F41A0E063
:10EC1000B0E0ABBFFC01E790FAE2EF1621F022E092
:10EC20000030120799F60F94DCF10F94DCF182E6C4
:10EC300092EE60E00F94C2F1C60161E070E00F94C3
:10EC400034F20F94DCF10F94DCF110920202109276
:10EC50000302109204021092050278CE89E992EE26
:10EC600062E00F94F5F1279A2F9A16C02F9880E052
:10EC700090E0E0EDF7E03197F1F7019684369105E9
:10EC8000C1F72F9A80E090E0E0EDF7E03197F1F7DF
:10EC9000019684369105C1F78091C00087FFE6CFC9
:10ECA0008091C00087FFFCCF64C485EA92EE62E0E9
:10ECB0000F94F5F140910202509103026091040219
:10ECC0007091050281E020E10F9491F2809102029F
:10ECD00090910302A0910402B091050280509F4FD1
:10ECE000AF4FBF4F8093020290930302A0930402A0
:10ECF000B093050280509041A040B04008F426CE69
:10ED0000A4CF83EB92EE62E00F94F5F140910602FE
:10ED100050910702609108027091090280E020E1A1
:10ED20000F9491F28091060290910702A09108023F
:10ED3000B091090280509F4FAF4FBF4F80930602A2
:10ED400090930702A0930802B0930902FFCD80ECD4
:10ED500092EE62E00F94F5F183E792EE60E00F949B
:10ED6000F5F18FE792EE60E00F94F5F18BE892EE0B
:10ED700060E00F94F5F189E992EE60E00F94F5F10F
:10ED800085EA92EE60E00F94F5F183EB92EE60E09D
:10ED90000F94F5F180EC92EE60E00F94F5F187ECC2
:10EDA00092EE60E00F94F5F188ED92EE60E00F9442
:10EDB000F5F18FED92EE60E00F94F5F18AEE92EEB0
:10EDC00060E00F94F5F183E093EEBDCD87EC92EE19
:10EDD00062E00F94F5F181E40F947BF282E40F94EA
:10EDE0007BF283E40F947BF284E40F947BF285E45E
:10EDF0000F947BF286E40F947BF287E40F947BF20E
:10EE000088E40F947BF28AE40F947BF28BE40F94F6
:10EE10007BF28CE40F947BF299CD88ED92EE62E068
:10EE20000F94F5F1772473948824992409C48FED05
:10EE300092EE62E00F94F5F140910A0250910B02BC
:10EE400060910C0270910D0282E020E10F9491F22A
:10EE500080910A0290910B02A0910C02B0910D02D8
:10EE600080509F4FAF4FBF4F80930A0290930B0289
:10EE7000A0930C02B0930D0269CD8AEE92EE62E08F
:10EE80000F94F5F184EE90EE60E00F94F5F18FECC5
:10EE900091EE60E00F94F5F1662477244301CC5D98
:10EEA000DE4F19821882C452D140D401C301B695F5
:10EEB000A79597958795CA5DDE4F88839983AA8326
:10EEC000BB83C652D140CC5DDE4FA881B981C4520C
:10EED000D1401196CC5DDE4FB983A883C452D14096
:10EEE000CD0162E070E00F9434F2B0E2B093C6005E
:10EEF0008091C00086FFFCCF8091C0008064809329
:10EF0000C000EDE2E093C6008091C00086FFFCCF18
:10EF10008091C00080648093C000F0E2F093C6004E
:10EF20008091C00086FFFCCF8091C00080648093F8
:10EF3000C000CA5DDE4FE880F9800A811B81C6529D
:10EF4000D140BB27A12F902F8F2D0F940DF2CA5DBA
:10EF5000DE4F8881C652D1400F940DF2B0E2FB2EF5
:10EF6000F092C6008091C00086FFFCCF8091C00067
:10EF700080648093C0000DE30093C6008091C000C0
:10EF800086FFFCCF8091C00080648093C00010E2B7
:10EF90001093C6008091C00086FFFCCF8091C00016
:10EFA00080648093C0008BBEF3012791C65DDE4F65
:10EFB0002883CA52D140A22EBB24CC24DD2408943D
:10EFC000611C711C811C911C8BBEF3018791282E42
:10EFD0003324442455240894611C711C811C911C09
:10EFE0008BBEF3013791C55DDE4F3883CB52D140E4
:10EFF0000894611C711C811C911C8BBEF30147910C
:10F00000C45DDE4F4883CC52D140ADEFEA2EAFEF66
:10F01000FA2EAFEF0A2FAFEF1A2F6E0C7F1C801E57
:10F02000911E142D032DF22CEE24EA0CFB1C0C1D5A
:10F030001D1D0F940DF220E22093C6008091C000A8
:10F0400086FFFCCF8091C00080648093C000C65DC5
:10F05000DE4F8881CA52D1400F940DF230E23093D6
:10F06000C6008091C00086FFFCCF8091C000806404
:10F070008093C000C45DDE4F8881CC52D1400F9494
:10F080000DF240E24093C6008091C00086FFFCCFA5
:10F090008091C00080648093C000C55DDE4F888190
:10F0A000CB52D1400F940DF250E25093C6008091A4
:10F0B000C00086FFFCCF8091C00080648093C000B8
:10F0C0008FEFE8168FEFF80680E0080780E018075A
:10F0D00031F484E092EE60E00F94C2F1DFC0D80119
:10F0E000C7018070907CA070B0708050904CA040A0
:10F0F000B040D1F52FEF3FE340E050E0E222F322B1
:10F1000004231523CA5DDE4FA880B980CA80DB8046
:10F11000C652D140AE0CBF1CC01ED11EAA0CBB1CD7
:10F12000CC1CDD1C8EE092EE60E00F94C2F1BB2798
:10F13000A12F902F8F2D0F940DF28E2D0F940DF285
:10F1400030E23093C6008091C00086FFFCCF8091F2
:10F15000C00080648093C0004EE34093C60080915D
:10F16000C00086FFFCCF87C08EE09EEFA0E0B0E03D
:10F17000E822F9220A231B239CE0E91694E9F90608
:10F1800090E0090790E0190709F088C0C45DDE4FE0
:10F19000A881CC52D140EA2EFF2400E010E0102FCD
:10F1A0000F2DFE2CEE24C55DDE4FB881CB52D14031
:10F1B000EB0EF11C011D111DD601C501817090706F
:10F1C000A070B070DC0199278827E80EF91E0A1F8D
:10F1D0001B1F20EF30E040E050E0A222B322C42207
:10F1E000D52241E1AA0CBB1CCC1CDD1C4A95D1F7F1
:10F1F000EA0CFB1C0C1D1D1D81E090E0A0E0B0E0BE
:10F20000282239224A225B2235E1220C331C441C7D
:10F21000551C3A95D1F7E20CF31C041D151D57013E
:10F220006801AA0CBB1CCC1CDD1C85E192EE60E0E1
:10F230000F94C2F1C801AA27BB270F940DF2BB2778
:10F24000A12F902F8F2D0F940DF28E2D0F940DF274
:10F2500090E29093C6008091C00086FFFCCF809121
:10F26000C00080648093C000AEE3A093C60080918C
:10F27000C00086FFFCCF8091C00080648093C000F6
:10F28000C601AA27BB270F940DF2BB27AD2D9C2DDD
:10F290008B2D0F940DF28A2D0F940DF20F94DCF14B
:10F2A000CC5DDE4FE881F981C452D140F99709F471
:10F2B0004DCBF4E0EF2EF12C012D112D6E0C7F1CA7
:10F2C000801E911EF2CD83E093EE62E00F94F5F183
:10F2D0008AE192EE60E00F94C2F18091C00087FF56
:10F2E000FCCF1091C6001F751093C6008091C0001E
:10F2F00086FFFCCF8091C00080648093C0000F9493
:10F30000DCF1812F81548A3108F036C1163409F4BA
:10F3100095C0173490F4133409F44EC0143430F40B
:10F320001134F1F0123409F01DC130C0143409F465
:10F3300059C0153409F016C16BC01A3409F4C4C0A1
:10F340001B3438F4173409F48FC0183409F00AC19B
:10F35000A1C01B3409F4D2C01C3409F003C1E8C0B9
:10F360008FEF81B90DC082B1809582B980E090E0C5
:10F37000E0EDF7E03197F1F70196883C9105C1F790
:10F380008091C00087FFEFCF12B8EFC08FEF84B934
:10F390000DC085B1809585B980E090E0E0EDF7E0A3
:10F3A0003197F1F70196883C9105C1F78091C00033
:10F3B00087FFEFCF15B8D9C08FEF87B90DC088B1DF
:10F3C000809588B980E090E0E0EDF7E03197F1F7C3
:10F3D0000196883C9105C1F78091C00087FFEFCF6F
:10F3E00018B8C3C08FEF8AB90DC08BB180958BB9A7
:10F3F00080E090E0E0EDF7E03197F1F70196883C8E
:10F400009105C1F78091C00087FFEFCF1BB8ADC059
:10F410008FEF8DB90DC08EB180958EB980E090E0F0
:10F42000E0EDF7E03197F1F70196883C9105C1F7DF
:10F430008091C00087FFEFCF1EB897C08FEF80BBD1
:10F440000DC081B3809581BB80E090E0E0EDF7E0F6
:10F450003197F1F70196883C9105C1F78091C00082
:10F4600087FFEFCF11BA81C08FEF83BB0DC084B38C
:10F47000809584BB80E090E0E0EDF7E03197F1F714
:10F480000196883C9105C1F78091C00087FFEFCFBE
:10F4900014BA6BC08FEF809301010FC080910201FD
:10F4A00080958093020180E090E0E0EDF7E03197F5
:10F4B000F1F70196883C9105C1F78091C00087FF64
:10F4C000EDCF1092020151C08FEF809304010FC065
:10F4D0008091050180958093050180E090E0E0ED4A
:10F4E000F7E03197F1F70196883C9105C1F78091DB
:10F4F000C00087FFEDCF1092050137C08FEF8093DA
:10F5000007010FC08091080180958093080180E079
:10F5100090E0E0EDF7E03197F1F70196883C910536
:10F52000C1F78091C00087FFEDCF109208011DC088
:10F530008FEF80930A010FC080910B01809580931B
:10F540000B0180E090E0E0EDF7E03197F1F70196F4
:10F55000883C9105C1F78091C00087FFEDCF1092E4
:10F560000B0103C085E292EEEEC98091C00087FFD7
:10F57000FCCF8091C600EAC988E392EEE4C98CE131
:10F5800091EEE1C988249924933011F1943028F444
:10F59000913089F09230B8F408C0953061F195301F
:10F5A000F0F0963009F048C043C02B3109F042C951
:10F5B00091E06BE13FC96227C15DDE4F2883CF52E6
:10F5C000D14092E037C9B22FA0E0622793E032C960
:10F5D000822F90E0A82BB92B622794E02BC92E3004
:10F5E00009F039C3622795E0C05DDE4F19821882A9
:10F5F000C053D1401FC9E1E0F0E0EC0FFD1FC05D3A
:10F60000DE4F08811981C053D140E00FF11F2083E4
:10F610000F5F1F4FC05DDE4F19830883C053D14079
:10F6200062270A171B0709F005C9D80196E002C92D
:10F63000261709F010C303C0973009F0FBC87724E0
:10F640009981933109F412C19431C8F4963009F4C8
:10F65000D8C0973050F4923009F406C1933009F4C1
:10F660006DC0913009F059C253C0913109F477C08F
:10F67000923108F0BBC0903109F04FC2F5C098310B
:10F6800009F487C0993150F4953109F4EFC09531F0
:10F6900008F4C6C1963109F040C2C2C19A3109F4DA
:10F6A0006CC09A3108F491C09B3109F45BC09D3164
:10F6B00009F033C29D81903359F48F81882311F46E
:10F6C0009EE11CC0813011F091E018C098E916C08D
:10F6D000892F807591F0903539F4E0E0F0E089E011
:10F6E0008093570094910AC0983539F4E3E0F0E034
:10F6F00089E080935700949101C090E01A821B82A8
:10F700008D818C831D829E831F8227E030E009C299
:10F710001A8288E08B8381E48C8386E58D8382E581
:10F720008E8389E48F8383E5888780E589878FE5E9
:10F730008A8782E38B872BE030E0F3C18A818139AD
:10F7400041F0823941F0803911F48FE005C080E04A
:10F7500003C082E001C08AE01A828B8344C0772410
:10F76000739482C08D81882311F48EE12CC0813086
:10F7700011F081E028C088E926C01A82E1E0F0E0BB
:10F7800089E08093570084918B831C8224E030E0D1
:10F79000C8C18B81803589F48C81883039F4E2E0EE
:10F7A000F0E089E08093570084910DC0E0E0F0E044
:10F7B00089E080935700849106C0E3E0F0E089E09F
:10F7C0008093570084911A82DFCF8D81836C99E0FA
:10F7D000E1E0F0E0082E90935700E89507B600FCB2
:10F7E000FDCF1A821B8223E030E09BC180EC8A832C
:10F7F000CE5CDE4F188219821A821B82C253D1401E
:10F800008EC18A8190E0A0E0B0E0582F44273327D2
:10F8100022278B8190E0A0E0B0E0DC0199278827C7
:10F82000282B392B4A2B5B2B8D8190E0A0E0B0E098
:10F83000282B392B4A2B5B2B8C8190E0A0E0B0E089
:10F84000BA2FA92F982F8827282B392B4A2B5B2BCF
:10F85000220F331F441F551FC05EDE4F288339839C
:10F860004A835B83C052D1401A8259C13A81C95C34
:10F87000DE4F3883C753D140CA5CDE4F1882C6536F
:10F88000D1408B81C82EDD24CA5CDE4F488159816E
:10F89000C653D140C42AD52A933109F082C0CE5C28
:10F8A000DE4F88819981AA81BB81C253D1408050AB
:10F8B000904CA340B04030F583E0CE5CDE4FE88052
:10F8C000F9800A811B81C253D140F70100935B008C
:10F8D00080935700E89507B600FCFDCFCE5CDE4F65
:10F8E000088119812A813B81C253D14000501F4FAA
:10F8F0002F4F3F4FCE5CDE4F088319832A833B8313
:10F90000C253D140C05EDE4F488159816A817B81FC
:10F91000C052D140DE011B9631E08C9111962C91A2
:10F9200011971296C75CDE4F2883C953D140C85C3B
:10F93000DE4F1882C853D14090E0C85CDE4FE881AA
:10F94000F981C853D1408E2B9F2B0C01FA01609393
:10F950005B0030935700E89511244E5F5F4F6F4F67
:10F960007F4F0EEFE02E0FEFF02ECE0CDF1CC114F8
:10F97000D10499F685E0C05EDE4F088119812A81A5
:10F980003B81C052D140F80120935B008093570027
:10F99000E89507B600FCFDCF81E180935700E8951C
:10F9A00035C0C05EDE4F88819981AA81BB81C0527B
:10F9B000D140B695A795979587957C018601ABE0D8
:10F9C000AA2EB12CAC0EBD1E0BC0D5016D915D01F0
:10F9D000C7010F947FFE0894E11CF11C01501040F8
:10F9E0000115110591F7A60160E070E0440F551F65
:10F9F000661F771FC05EDE4FE880F9800A811B8199
:10FA0000C052D1404E0D5F1D601F711F1A82C05E33
:10FA1000DE4F488359836A837B83C052D1407FC0C5
:10FA2000FA80C55CDE4FF882CB53D140C65CDE4F16
:10FA30001882CA53D1408B81C82EDD24C65CDE4FAC
:10FA400008811981CA53D140C02AD12A1A828981DA
:10FA5000BE016D5F7F4F843121F59601C05EDE4FA0
:10FA6000E880F9800A811B81C052D1400BBFF701A9
:10FA700087919691DB018C9311969C936E5F7F4FDB
:10FA8000D801C7010296A11DB11DC05EDE4F88835B
:10FA90009983AA83BB83C052D14022503040F1F6F3
:10FAA00036C0C05EDE4F288139814A815B81C052F9
:10FAB000D1400894C108D108760100E010E0089414
:10FAC000C11CD11C0894E11CF11C011D111DE20E8A
:10FAD000F31E041F151F21BDBB27A52F942F832FB5
:10FAE00082BD2F5F3F4F4F4F5F4FF89A80B5DB01CC
:10FAF0008D93BD012E153F054007510761F7C05E8C
:10FB0000DE4F288339834A835B83C052D1409601FC
:10FB10002D5F3F4FFB01108204C080EC8A8322E0FE
:10FB200030E08BE18093C6008091C00086FFFCCF5F
:10FB30008091C00080648093C000C15DDE4FF88179
:10FB4000CF52D140F093C6008091C00086FFFCCF19
:10FB50008091C00080648093C000432F3093C60022
:10FB60008091C00086FFFCCF8091C00080648093AC
:10FB7000C000922F2093C6008091C00086FFFCCF6A
:10FB80008091C00080648093C0008EE08093C600A6
:10FB90008091C00086FFFCCF8091C000806480937C
:10FBA000C00065E1C15DDE4FE880CF52D1406E25D7
:10FBB00069276427FE01319610C090819093C6009A
:10FBC0008091C00086FFFCCF31968091C000806498
:10FBD0008093C0006927215030402115310569F715
:10FBE0006093C6008091C00086FFFCCF8091C0006A
:10FBF00080648093C00085B1805885B9772081F4F6
:10FC0000C15DDE4F0881CF52D1400F5FC15DDE4F35
:10FC10000883CF52D14090E0A0E0B0E00D941AF4F8
:10FC200027982F9880E090E020ED37E0F901319798
:10FC3000F1F7019684369105C9F700008091C00064
:10FC40008D7F8093C00081E180935700E895EE2777
:10FC5000FF270994FFCF90E00D941AF497FB092E2B
:10FC600007260AD077FD04D02ED006D000201AF443
:10FC7000709561957F4F0895F6F7909581959F4F08
:10FC80000895A1E21A2EAA1BBB1BFD010DC0AA1FDD
:10FC9000BB1FEE1FFF1FA217B307E407F50720F0F5
:10FCA000A21BB30BE40BF50B661F771F881F991F70
:10FCB0001A9469F760957095809590959B01AC01B9
:10FCC000BD01CF010895AA1BBB1B51E107C0AA1FAC
:10FCD000BB1FA617B70710F0A61BB70B881F991FED
:10FCE0005A95A9F780959095BC01CD010895F99991
:10FCF000FECF92BD81BDF89A992780B50895262F31
:10FD0000F999FECF1FBA92BD81BD20BD0FB6F89400
:0EFD1000FA9AF99A0FBE01960895F894FFCF63
:040000033000E000E9
:00000001FF
